:100000000C9440000C945B000C945B000C9400007A
:100010000C9400000C9400000C9400000C94000060
:100020000C9400000C9400000C9400000C94000050
:100030000C9400000C9400000C9400000C94000040
:100040000C9400000C9400000C9400000C94000030
:100050000C9400001027E80364000A00010000105F
:1000600000011000010020492F4F203A20000A0D06
:100070000020636861726163746572203A20000039
:10008000F894EE27ECBBF1E0FBBFEBBFE5BF8DE0E2
:10009000A2E0BB27ED938A95E9F780E094E0A0E623
:1000A000ED930197E9F7EFE5EDBFE4E0EEBFC0E6C1
:1000B000D1E00C9477000A921A92FA926A937A939A
:1000C0008A939A93AA93BA93EA93FA93EFB7EA932F
:1000D00039D0E991EFBFF991E991B991A99199913D
:1000E000899179916991F990199009901895EBB7D8
:1000F000E06CEBBFEFE0E5BFE0E0E4BFE0ECEABFBF
:100100007894E0E0EBB9E8E1EAB9E6E8E0BDE0E0E8
:10011000E0BDECE0E9B9E0E0E0BDECE0E9B9E8E140
:10012000EAB9E6E8E0BD7894EFEFE7BBEABBE0E0D0
:10013000E1BBE2BBE4EAE8BBDD9ADC9ADE9A02D0DE
:10014000FFCFFFCFA6E6B0E00E94DB0029D04E2E05
:10015000A42D0E94F000A1E7B0E00E94DB0020D0B7
:100160005E2EA52D0E94F00058BAE1E3E41511F4CB
:10017000DD9804C0E2E3E41511F4DD9ADC98A4E60E
:10018000B0E00E94F600DE98A4E6B0E00E94F6001F
:10019000DD9ADC9AE4EAE8BBDE9AE2E0E5BF089586
:1001A0005F9BFECFECB10895AA935D9BFECFE881E3
:1001B000ECB921960895BA93AA931A93E981FA812A
:1001C0003196E983FA833197E4911E2FE03019F0DC
:1001D000A12FEADFF3CFAAE0E7DF18812396089585
:1001E0000E94D400AEE6B0E00C94DB00109639F02B
:1001F0008AEF90E00197F1F7A8951197C9F7089554
:00000001FF
