:080000000C942F000C94000089
:100008000C9400000C9400000C9400000C94000068
:100018000C9400000C9400000C9400000C94000058
:100028000C9400000C9400000C9400000C94000048
:100038000C9400000C9400000C9400000C94000038
:100048000C9400000C9400000C94000080C0020086
:10005800600154000000F894EE27ECBBF1E0FBBF10
:10006800EBBFE5BF8DE0A2E0BB27ED938A95E9F7EA
:1000780080E094E0A0E6ED930197E9F7E6E5F0E08B
:1000880085919591009761F0A591B591059015908E
:10009800BF01F00105900D920197E1F7FB01F0CF48
:1000A800EFE5EDBFE4E0EEBFC0E6D1E00C945C0004
:1000B800E0E0E3BFE2BFECBFEFBDEEBDEDBDECBDE0
:1000C800E7BDE6BDEBBDEABDE9BDE8BDE2BDE5BD06
:1000D800E4BDE3BDE9BFE5BFE4BFEAB9E0E8E8B9DC
:1000E800E0E0E0BFE6B9EDB9E6BFA0E162D0B898BC
:1000F800B99AE0E0EABBC19AB0990EC059B23BD0B8
:10010800A52D43D0A8ECB0E00E941201C198A8EC3C
:10011800B0E00E941201C19AEFCFFFCFAA93E5B3D6
:10012800EF70AE2FE881E07FEA2BE5BB82E08A958D
:10013800F1F7AA9A82E08A95F1F7AA9882E08A955F
:10014800F1F75FC0AA93A881E9DFE881E295E88327
:10015800A881E4DF81E18A95F1F753C0AA93E88189
:10016800F0E0E05AFE4FE081A981AE0FEBDF498055
:10017800788022960895A2E046D0ACE0E3DFA1E0C3
:1001880042D0E0E07E2E4E2E0895AA93A881AA3090
:1001980011F0461440F0E0E0EA937394A72DDEDFF7
:1001A800A881AA3071F14394A89AA881CBDFA898B6
:1001B80028C0AA93E4B3E06FE4BBA29AA09AA19ADC
:1001C800AA98A898A9986880E881E058E093620105
:1001D800E881E054E0936301A4E1B0E00E941201D9
:1001E80017D016D015D0A0E299DF81E28A95F1F7F1
:1001F800A8E2A8DFA4E0A6DFA5E8A4DFA6E0A2DFC6
:10020800BADF219608959EDFA3E0B0E00C941201B6
:10021800A0E384DF81E28A95F1F70895109639F01A
:100228008AEF90E00197F1F7A8951197C9F708951B
:00000001FF
